{
  "contractName": "ItemManager",
  "abi": [
    {
      "anonymous": false,
      "inputs": [
        {
          "indexed": true,
          "internalType": "address",
          "name": "previousOwner",
          "type": "address"
        },
        {
          "indexed": true,
          "internalType": "address",
          "name": "newOwner",
          "type": "address"
        }
      ],
      "name": "OwnershipTransferred",
      "type": "event"
    },
    {
      "anonymous": false,
      "inputs": [
        {
          "indexed": true,
          "internalType": "uint256",
          "name": "_itemIndex",
          "type": "uint256"
        },
        {
          "indexed": false,
          "internalType": "uint256",
          "name": "_status",
          "type": "uint256"
        },
        {
          "indexed": false,
          "internalType": "address",
          "name": "_address",
          "type": "address"
        }
      ],
      "name": "SupplyChainStatusChange",
      "type": "event"
    },
    {
      "inputs": [
        {
          "internalType": "uint256",
          "name": "",
          "type": "uint256"
        }
      ],
      "name": "items",
      "outputs": [
        {
          "internalType": "string",
          "name": "id",
          "type": "string"
        },
        {
          "internalType": "contract Item",
          "name": "item",
          "type": "address"
        },
        {
          "internalType": "enum ItemManager.SupplyChainStatus",
          "name": "status",
          "type": "uint8"
        }
      ],
      "stateMutability": "view",
      "type": "function",
      "constant": true
    },
    {
      "inputs": [],
      "name": "owner",
      "outputs": [
        {
          "internalType": "address",
          "name": "",
          "type": "address"
        }
      ],
      "stateMutability": "view",
      "type": "function",
      "constant": true
    },
    {
      "inputs": [],
      "name": "renounceOwnership",
      "outputs": [],
      "stateMutability": "nonpayable",
      "type": "function"
    },
    {
      "inputs": [
        {
          "internalType": "address",
          "name": "newOwner",
          "type": "address"
        }
      ],
      "name": "transferOwnership",
      "outputs": [],
      "stateMutability": "nonpayable",
      "type": "function"
    },
    {
      "inputs": [
        {
          "internalType": "string",
          "name": "_id",
          "type": "string"
        },
        {
          "internalType": "uint256",
          "name": "_priceInWei",
          "type": "uint256"
        }
      ],
      "name": "createItem",
      "outputs": [],
      "stateMutability": "nonpayable",
      "type": "function"
    },
    {
      "inputs": [
        {
          "internalType": "uint256",
          "name": "_index",
          "type": "uint256"
        }
      ],
      "name": "triggerPayment",
      "outputs": [],
      "stateMutability": "payable",
      "type": "function",
      "payable": true
    },
    {
      "inputs": [
        {
          "internalType": "uint256",
          "name": "_index",
          "type": "uint256"
        }
      ],
      "name": "triggerDelivery",
      "outputs": [],
      "stateMutability": "nonpayable",
      "type": "function"
    }
  ],
  "bytecode": "0x608060405234801561001057600080fd5b5060006100216100c460201b60201c565b9050806000806101000a81548173ffffffffffffffffffffffffffffffffffffffff021916908373ffffffffffffffffffffffffffffffffffffffff1602179055508073ffffffffffffffffffffffffffffffffffffffff16600073ffffffffffffffffffffffffffffffffffffffff167f8be0079c531659141344cd1fd0a4f28419497f9722a3daafe3b4186f6b6457e060405160405180910390a3506100cc565b600033905090565b612022806100db6000396000f3fe6080604052600436106200007a5760003560e01c80638da5cb5b11620000555780638da5cb5b14620000e7578063bfb231d21462000117578063cd31831e146200015d578063f2fde38b146200018b576200007a565b8063715018a6146200007f578063800fb83f14620000995780638c55174214620000b9575b600080fd5b3480156200008c57600080fd5b5062000097620001b9565b005b620000b76004803603810190620000b191906200103b565b620002fa565b005b348015620000c657600080fd5b50620000e56004803603810190620000df919062000fe1565b62000681565b005b348015620000f457600080fd5b50620000ff620008de565b6040516200010e919062001213565b60405180910390f35b3480156200012457600080fd5b506200014360048036038101906200013d91906200103b565b62000907565b60405162000154939291906200126d565b60405180910390f35b3480156200016a57600080fd5b506200018960048036038101906200018391906200103b565b620009ee565b005b3480156200019857600080fd5b50620001b76004803603810190620001b1919062000fb5565b62000c85565b005b620001c362000e38565b73ffffffffffffffffffffffffffffffffffffffff16620001e3620008de565b73ffffffffffffffffffffffffffffffffffffffff16146200023c576040517f08c379a0000000000000000000000000000000000000000000000000000000008152600401620002339062001317565b60405180910390fd5b600073ffffffffffffffffffffffffffffffffffffffff1660008054906101000a900473ffffffffffffffffffffffffffffffffffffffff1673ffffffffffffffffffffffffffffffffffffffff167f8be0079c531659141344cd1fd0a4f28419497f9722a3daafe3b4186f6b6457e060405160405180910390a360008060006101000a81548173ffffffffffffffffffffffffffffffffffffffff021916908373ffffffffffffffffffffffffffffffffffffffff160217905550565b60006001600083815260200190815260200160002060010160009054906101000a900473ffffffffffffffffffffffffffffffffffffffff1690503373ffffffffffffffffffffffffffffffffffffffff168173ffffffffffffffffffffffffffffffffffffffff1614620003a6576040517f08c379a00000000000000000000000000000000000000000000000000000000081526004016200039d9062001339565b60405180910390fd5b348173ffffffffffffffffffffffffffffffffffffffff16633c8da5886040518163ffffffff1660e01b815260040160206040518083038186803b158015620003ee57600080fd5b505afa15801562000403573d6000803e3d6000fd5b505050506040513d601f19601f8201168201806040525081019062000429919062001067565b11156200046d576040517f08c379a00000000000000000000000000000000000000000000000000000000081526004016200046490620012f5565b60405180910390fd5b60006002811115620004a8577f4e487b7100000000000000000000000000000000000000000000000000000000600052602160045260246000fd5b6001600084815260200190815260200160002060010160149054906101000a900460ff16600281111562000505577f4e487b7100000000000000000000000000000000000000000000000000000000600052602160045260246000fd5b1462000548576040517f08c379a00000000000000000000000000000000000000000000000000000000081526004016200053f906200135b565b60405180910390fd5b600180600084815260200190815260200160002060010160146101000a81548160ff02191690836002811115620005a8577f4e487b7100000000000000000000000000000000000000000000000000000000600052602160045260246000fd5b0217905550817f55ac7572938dd4ef94842269837c85bda34d7e4bdacc791345759a1e7e3c04256001600085815260200190815260200160002060010160149054906101000a900460ff1660028111156200062c577f4e487b7100000000000000000000000000000000000000000000000000000000600052602160045260246000fd5b60016000600254815260200190815260200160002060010160009054906101000a900473ffffffffffffffffffffffffffffffffffffffff16604051620006759291906200137d565b60405180910390a25050565b6200068b62000e38565b73ffffffffffffffffffffffffffffffffffffffff16620006ab620008de565b73ffffffffffffffffffffffffffffffffffffffff161462000704576040517f08c379a0000000000000000000000000000000000000000000000000000000008152600401620006fb9062001317565b60405180910390fd5b6000600160006002548152602001908152602001600020905060008160010160146101000a81548160ff021916908360028111156200076c577f4e487b7100000000000000000000000000000000000000000000000000000000600052602160045260246000fd5b0217905550828160000190805190602001906200078b92919062000e40565b5060003083600254604051620007a19062000ed1565b620007af9392919062001230565b604051809103906000f080158015620007cc573d6000803e3d6000fd5b509050808260010160006101000a81548173ffffffffffffffffffffffffffffffffffffffff021916908373ffffffffffffffffffffffffffffffffffffffff1602179055506002547f55ac7572938dd4ef94842269837c85bda34d7e4bdacc791345759a1e7e3c04258360010160149054906101000a900460ff16600281111562000881577f4e487b7100000000000000000000000000000000000000000000000000000000600052602160045260246000fd5b8460010160009054906101000a900473ffffffffffffffffffffffffffffffffffffffff16604051620008b69291906200137d565b60405180910390a260026000815480929190620008d3906200158d565b919050555050505050565b60008060009054906101000a900473ffffffffffffffffffffffffffffffffffffffff16905090565b60016020528060005260406000206000915090508060000180546200092c9062001521565b80601f01602080910402602001604051908101604052809291908181526020018280546200095a9062001521565b8015620009ab5780601f106200097f57610100808354040283529160200191620009ab565b820191906000526020600020905b8154815290600101906020018083116200098d57829003601f168201915b5050505050908060010160009054906101000a900473ffffffffffffffffffffffffffffffffffffffff16908060010160149054906101000a900460ff16905083565b620009f862000e38565b73ffffffffffffffffffffffffffffffffffffffff1662000a18620008de565b73ffffffffffffffffffffffffffffffffffffffff161462000a71576040517f08c379a000000000000000000000000000000000000000000000000000000000815260040162000a689062001317565b60405180910390fd5b6001600281111562000aac577f4e487b7100000000000000000000000000000000000000000000000000000000600052602160045260246000fd5b6001600083815260200190815260200160002060010160149054906101000a900460ff16600281111562000b09577f4e487b7100000000000000000000000000000000000000000000000000000000600052602160045260246000fd5b1462000b4c576040517f08c379a000000000000000000000000000000000000000000000000000000000815260040162000b4390620012b1565b60405180910390fd5b60026001600083815260200190815260200160002060010160146101000a81548160ff0219169083600281111562000bad577f4e487b7100000000000000000000000000000000000000000000000000000000600052602160045260246000fd5b0217905550807f55ac7572938dd4ef94842269837c85bda34d7e4bdacc791345759a1e7e3c04256001600084815260200190815260200160002060010160149054906101000a900460ff16600281111562000c31577f4e487b7100000000000000000000000000000000000000000000000000000000600052602160045260246000fd5b60016000600254815260200190815260200160002060010160009054906101000a900473ffffffffffffffffffffffffffffffffffffffff1660405162000c7a9291906200137d565b60405180910390a250565b62000c8f62000e38565b73ffffffffffffffffffffffffffffffffffffffff1662000caf620008de565b73ffffffffffffffffffffffffffffffffffffffff161462000d08576040517f08c379a000000000000000000000000000000000000000000000000000000000815260040162000cff9062001317565b60405180910390fd5b600073ffffffffffffffffffffffffffffffffffffffff168173ffffffffffffffffffffffffffffffffffffffff16141562000d7b576040517f08c379a000000000000000000000000000000000000000000000000000000000815260040162000d7290620012d3565b60405180910390fd5b8073ffffffffffffffffffffffffffffffffffffffff1660008054906101000a900473ffffffffffffffffffffffffffffffffffffffff1673ffffffffffffffffffffffffffffffffffffffff167f8be0079c531659141344cd1fd0a4f28419497f9722a3daafe3b4186f6b6457e060405160405180910390a3806000806101000a81548173ffffffffffffffffffffffffffffffffffffffff021916908373ffffffffffffffffffffffffffffffffffffffff16021790555050565b600033905090565b82805462000e4e9062001521565b90600052602060002090601f01602090048101928262000e72576000855562000ebe565b82601f1062000e8d57805160ff191683800117855562000ebe565b8280016001018555821562000ebe579182015b8281111562000ebd57825182559160200191906001019062000ea0565b5b50905062000ecd919062000edf565b5090565b61074580620018a883390190565b5b8082111562000efa57600081600090555060010162000ee0565b5090565b600062000f1562000f0f84620013d3565b620013aa565b90508281526020810184848401111562000f2e57600080fd5b62000f3b848285620014dc565b509392505050565b60008135905062000f548162001873565b92915050565b600082601f83011262000f6c57600080fd5b813562000f7e84826020860162000efe565b91505092915050565b60008135905062000f98816200188d565b92915050565b60008151905062000faf816200188d565b92915050565b60006020828403121562000fc857600080fd5b600062000fd88482850162000f43565b91505092915050565b6000806040838503121562000ff557600080fd5b600083013567ffffffffffffffff8111156200101057600080fd5b6200101e8582860162000f5a565b9250506020620010318582860162000f87565b9150509250929050565b6000602082840312156200104e57600080fd5b60006200105e8482850162000f87565b91505092915050565b6000602082840312156200107a57600080fd5b60006200108a8482850162000f9e565b91505092915050565b6200109e8162001425565b82525050565b620010af8162001478565b82525050565b620010c081620014a0565b82525050565b620010d181620014c8565b82525050565b6000620010e48262001409565b620010f0818562001414565b935062001102818560208601620014eb565b6200110d8162001697565b840191505092915050565b60006200112760358362001414565b91506200113482620016a8565b604082019050919050565b60006200114e60268362001414565b91506200115b82620016f7565b604082019050919050565b60006200117560218362001414565b9150620011828262001746565b604082019050919050565b60006200119c60208362001414565b9150620011a98262001795565b602082019050919050565b6000620011c3602d8362001414565b9150620011d082620017be565b604082019050919050565b6000620011ea602f8362001414565b9150620011f7826200180d565b604082019050919050565b6200120d816200146e565b82525050565b60006020820190506200122a600083018462001093565b92915050565b6000606082019050620012476000830186620010a4565b62001256602083018562001202565b62001265604083018462001202565b949350505050565b60006060820190508181036000830152620012898186620010d7565b90506200129a6020830185620010b5565b620012a96040830184620010c6565b949350505050565b60006020820190508181036000830152620012cc8162001118565b9050919050565b60006020820190508181036000830152620012ee816200113f565b9050919050565b60006020820190508181036000830152620013108162001166565b9050919050565b6000602082019050818103600083015262001332816200118d565b9050919050565b600060208201905081810360008301526200135481620011b4565b9050919050565b600060208201905081810360008301526200137681620011db565b9050919050565b600060408201905062001394600083018562001202565b620013a3602083018462001093565b9392505050565b6000620013b6620013c9565b9050620013c4828262001557565b919050565b6000604051905090565b600067ffffffffffffffff821115620013f157620013f062001668565b5b620013fc8262001697565b9050602081019050919050565b600081519050919050565b600082825260208201905092915050565b600062001432826200144e565b9050919050565b600081905062001449826200185c565b919050565b600073ffffffffffffffffffffffffffffffffffffffff82169050919050565b6000819050919050565b600062001485826200148c565b9050919050565b600062001499826200144e565b9050919050565b6000620014ad82620014b4565b9050919050565b6000620014c1826200144e565b9050919050565b6000620014d58262001439565b9050919050565b82818337600083830152505050565b60005b838110156200150b578082015181840152602081019050620014ee565b838111156200151b576000848401525b50505050565b600060028204905060018216806200153a57607f821691505b6020821081141562001551576200155062001639565b5b50919050565b620015628262001697565b810181811067ffffffffffffffff8211171562001584576200158362001668565b5b80604052505050565b60006200159a826200146e565b91507fffffffffffffffffffffffffffffffffffffffffffffffffffffffffffffffff821415620015d057620015cf620015db565b5b600182019050919050565b7f4e487b7100000000000000000000000000000000000000000000000000000000600052601160045260246000fd5b7f4e487b7100000000000000000000000000000000000000000000000000000000600052602160045260246000fd5b7f4e487b7100000000000000000000000000000000000000000000000000000000600052602260045260246000fd5b7f4e487b7100000000000000000000000000000000000000000000000000000000600052604160045260246000fd5b6000601f19601f8301169050919050565b7f4974656d20686173206e6f7420796574206265656e207061696420666f72206f60008201527f7220686173206265656e2064656c6976657265642e0000000000000000000000602082015250565b7f4f776e61626c653a206e6577206f776e657220697320746865207a65726f206160008201527f6464726573730000000000000000000000000000000000000000000000000000602082015250565b7f507269636520697320686967686572207468616e2073656e7420616d6f756e7460008201527f2e00000000000000000000000000000000000000000000000000000000000000602082015250565b7f4f776e61626c653a2063616c6c6572206973206e6f7420746865206f776e6572600082015250565b7f4f6e6c79206974656d732061726520616c6c6f77656420746f2075706461746560008201527f64207468656d73656c7665732e00000000000000000000000000000000000000602082015250565b7f4974656d20697320616c7265616479207061696420666f72206f72206861732060008201527f6265656e2064656c6976657265642e0000000000000000000000000000000000602082015250565b6003811062001870576200186f6200160a565b5b50565b6200187e8162001425565b81146200188a57600080fd5b50565b62001898816200146e565b8114620018a457600080fd5b5056fe608060405234801561001057600080fd5b5060405161074538038061074583398181016040528101906100329190610097565b8160008190555080600281905550600360009054906101000a900473ffffffffffffffffffffffffffffffffffffffff169250505050610162565b60008151905061007c81610134565b92915050565b6000815190506100918161014b565b92915050565b6000806000606084860312156100ac57600080fd5b60006100ba8682870161006d565b93505060206100cb86828701610082565b92505060406100dc86828701610082565b9150509250925092565b60006100f18261010a565b9050919050565b6000610103826100e6565b9050919050565b600073ffffffffffffffffffffffffffffffffffffffff82169050919050565b6000819050919050565b61013d816100f8565b811461014857600080fd5b50565b6101548161012a565b811461015f57600080fd5b50565b6105d4806101716000396000f3fe6080604052600436106100385760003560e01c80632986c0e5146102465780633c8da5881461027157806383d12eef1461029c57610241565b36610241573460005414610081576040517f08c379a000000000000000000000000000000000000000000000000000000000815260040161007890610399565b60405180910390fd5b6000600154146100c6576040517f08c379a00000000000000000000000000000000000000000000000000000000081526004016100bd906103b9565b60405180910390fd5b34600160008282546100d8919061043b565b925050819055506000600360009054906101000a900473ffffffffffffffffffffffffffffffffffffffff1673ffffffffffffffffffffffffffffffffffffffff163460025460405160240161012e91906103f9565b6040516020818303038152906040527f800fb83f000000000000000000000000000000000000000000000000000000007bffffffffffffffffffffffffffffffffffffffffffffffffffffffff19166020820180517bffffffffffffffffffffffffffffffffffffffffffffffffffffffff83818316178352505050506040516101b89190610382565b60006040518083038185875af1925050503d80600081146101f5576040519150601f19603f3d011682016040523d82523d6000602084013e6101fa565b606091505b505090508061023e576040517f08c379a0000000000000000000000000000000000000000000000000000000008152600401610235906103d9565b60405180910390fd5b50005b600080fd5b34801561025257600080fd5b5061025b6102c7565b60405161026891906103f9565b60405180910390f35b34801561027d57600080fd5b506102866102cd565b60405161029391906103f9565b60405180910390f35b3480156102a857600080fd5b506102b16102d3565b6040516102be91906103f9565b60405180910390f35b60025481565b60005481565b60015481565b60006102e482610414565b6102ee818561041f565b93506102fe81856020860161049b565b80840191505092915050565b600061031760218361042a565b9150610322826104fd565b604082019050919050565b600061033a601f8361042a565b91506103458261054c565b602082019050919050565b600061035d60158361042a565b915061036882610575565b602082019050919050565b61037c81610491565b82525050565b600061038e82846102d9565b915081905092915050565b600060208201905081810360008301526103b28161030a565b9050919050565b600060208201905081810360008301526103d28161032d565b9050919050565b600060208201905081810360008301526103f281610350565b9050919050565b600060208201905061040e6000830184610373565b92915050565b600081519050919050565b600081905092915050565b600082825260208201905092915050565b600061044682610491565b915061045183610491565b9250827fffffffffffffffffffffffffffffffffffffffffffffffffffffffffffffffff03821115610486576104856104ce565b5b828201905092915050565b6000819050919050565b60005b838110156104b957808201518184015260208101905061049e565b838111156104c8576000848401525b50505050565b7f4e487b7100000000000000000000000000000000000000000000000000000000600052601160045260246000fd5b7f576520646f6e277420737570706f7274207061727469616c207061796d656e7460008201527f7300000000000000000000000000000000000000000000000000000000000000602082015250565b7f4974656d2068617320616c7265616479206265656e207061696420666f722e00600082015250565b7f5061796d656e7420646964206e6f7420776f726b2e000000000000000000000060008201525056fea2646970667358221220982f8166316daaa58caeb53546607c51d89da57c2f80662dd5b99f65508fef3964736f6c63430008040033a264697066735822122083bf70343d98b9256765d0018ae314da5b8f6414265c8ff0d9e440011b643f8b64736f6c63430008040033",
  "immutableReferences": {},
  "source": "//SPDX-License-Identifier: MIT\r\n\r\npragma solidity 0.8.4;\r\n\r\nimport \"./Item.sol\";\r\nimport \"@openzeppelin/contracts/access/Ownable.sol\";\r\n\r\ncontract ItemManager is Ownable {\r\n\r\n    enum SupplyChainStatus {\r\n        Created, Paid, Delivered\r\n    }\r\n\r\n    struct SupplyItem {\r\n        string id;\r\n        Item item;\r\n        SupplyChainStatus status;\r\n    }\r\n\r\n    mapping(uint => SupplyItem) public items;\r\n\r\n    uint index;\r\n\r\n    event SupplyChainStatusChange(uint indexed _itemIndex, uint _status, address _address);\r\n\r\n    function createItem(string memory _id, uint _priceInWei) public onlyOwner {\r\n        SupplyItem storage supplyItem = items[index];\r\n        supplyItem.status = SupplyChainStatus.Created;\r\n        supplyItem.id = _id;\r\n        Item item = new Item(this, _priceInWei, index);\r\n        supplyItem.item = item;\r\n\r\n        emit SupplyChainStatusChange(index, uint(supplyItem.status), address(supplyItem.item));\r\n        index++;\r\n    }\r\n\r\n    function triggerPayment(uint _index) public payable {\r\n        Item item = items[_index].item;\r\n        require(address(item) == msg.sender, \"Only items are allowed to updated themselves.\");\r\n        require(item.priceInWei() <= msg.value, \"Price is higher than sent amount.\");\r\n        require(items[_index].status == SupplyChainStatus.Created, \"Item is already paid for or has been delivered.\");\r\n        items[_index].status = SupplyChainStatus.Paid;\r\n        emit SupplyChainStatusChange(_index, uint(items[_index].status), address(items[index].item));\r\n    }\r\n\r\n    function triggerDelivery(uint _index) public onlyOwner {\r\n        require(items[_index].status == SupplyChainStatus.Paid, \"Item has not yet been paid for or has been delivered.\");\r\n        items[_index].status = SupplyChainStatus.Delivered;\r\n        emit SupplyChainStatusChange(_index, uint(items[_index].status), address(items[index].item));\r\n    }\r\n}\r\n",
  "sourcePath": "C:\\Users\\brian\\desktop\\crypto\\supply-chain\\contracts\\ItemManager.sol",
  "compiler": {
    "name": "solc",
    "version": "0.8.4+commit.c7e474f2.Emscripten.clang"
  },
  "schemaVersion": "3.4.0",
  "updatedAt": "2021-04-26T16:27:58.716Z",
  "networkType": "ethereum",
  "devdoc": {
    "kind": "dev",
    "methods": {
      "owner()": {
        "details": "Returns the address of the current owner."
      },
      "renounceOwnership()": {
        "details": "Leaves the contract without owner. It will not be possible to call `onlyOwner` functions anymore. Can only be called by the current owner. NOTE: Renouncing ownership will leave the contract without an owner, thereby removing any functionality that is only available to the owner."
      },
      "transferOwnership(address)": {
        "details": "Transfers ownership of the contract to a new account (`newOwner`). Can only be called by the current owner."
      }
    },
    "version": 1
  },
  "userdoc": {
    "kind": "user",
    "methods": {},
    "version": 1
  }
}